{
  "abi": [
    {
      "inputs": [
        {
          "internalType": "string",
          "name": "_name",
          "type": "string"
        },
        {
          "internalType": "string",
          "name": "_symbol",
          "type": "string"
        }
      ],
      "stateMutability": "nonpayable",
      "type": "constructor"
    },
    {
      "anonymous": false,
      "inputs": [
        {
          "indexed": true,
          "internalType": "address",
          "name": "owner",
          "type": "address"
        },
        {
          "indexed": true,
          "internalType": "address",
          "name": "operator",
          "type": "address"
        },
        {
          "indexed": false,
          "internalType": "bool",
          "name": "approved",
          "type": "bool"
        }
      ],
      "name": "ApprovalForAll",
      "type": "event"
    },
    {
      "anonymous": false,
      "inputs": [
        {
          "indexed": true,
          "internalType": "address",
          "name": "user",
          "type": "address"
        },
        {
          "indexed": true,
          "internalType": "address",
          "name": "newOwner",
          "type": "address"
        }
      ],
      "name": "OwnershipTransferred",
      "type": "event"
    },
    {
      "anonymous": false,
      "inputs": [
        {
          "indexed": true,
          "internalType": "address",
          "name": "operator",
          "type": "address"
        },
        {
          "indexed": true,
          "internalType": "address",
          "name": "from",
          "type": "address"
        },
        {
          "indexed": true,
          "internalType": "address",
          "name": "to",
          "type": "address"
        },
        {
          "indexed": false,
          "internalType": "uint256[]",
          "name": "ids",
          "type": "uint256[]"
        },
        {
          "indexed": false,
          "internalType": "uint256[]",
          "name": "amounts",
          "type": "uint256[]"
        }
      ],
      "name": "TransferBatch",
      "type": "event"
    },
    {
      "anonymous": false,
      "inputs": [
        {
          "indexed": true,
          "internalType": "address",
          "name": "operator",
          "type": "address"
        },
        {
          "indexed": true,
          "internalType": "address",
          "name": "from",
          "type": "address"
        },
        {
          "indexed": true,
          "internalType": "address",
          "name": "to",
          "type": "address"
        },
        {
          "indexed": false,
          "internalType": "uint256",
          "name": "id",
          "type": "uint256"
        },
        {
          "indexed": false,
          "internalType": "uint256",
          "name": "amount",
          "type": "uint256"
        }
      ],
      "name": "TransferSingle",
      "type": "event"
    },
    {
      "anonymous": false,
      "inputs": [
        {
          "indexed": false,
          "internalType": "string",
          "name": "value",
          "type": "string"
        },
        {
          "indexed": true,
          "internalType": "uint256",
          "name": "id",
          "type": "uint256"
        }
      ],
      "name": "URI",
      "type": "event"
    },
    {
      "inputs": [
        {
          "internalType": "address",
          "name": "",
          "type": "address"
        },
        {
          "internalType": "uint256",
          "name": "",
          "type": "uint256"
        }
      ],
      "name": "balanceOf",
      "outputs": [
        {
          "internalType": "uint256",
          "name": "",
          "type": "uint256"
        }
      ],
      "stateMutability": "view",
      "type": "function"
    },
    {
      "inputs": [
        {
          "internalType": "address[]",
          "name": "owners",
          "type": "address[]"
        },
        {
          "internalType": "uint256[]",
          "name": "ids",
          "type": "uint256[]"
        }
      ],
      "name": "balanceOfBatch",
      "outputs": [
        {
          "internalType": "uint256[]",
          "name": "balances",
          "type": "uint256[]"
        }
      ],
      "stateMutability": "view",
      "type": "function"
    },
    {
      "inputs": [
        {
          "internalType": "uint256",
          "name": "index",
          "type": "uint256"
        }
      ],
      "name": "burnToMint",
      "outputs": [],
      "stateMutability": "payable",
      "type": "function"
    },
    {
      "inputs": [
        {
          "internalType": "uint256",
          "name": "",
          "type": "uint256"
        }
      ],
      "name": "burnToMintMapping",
      "outputs": [
        {
          "internalType": "uint64",
          "name": "price",
          "type": "uint64"
        },
        {
          "internalType": "uint8",
          "name": "burnGen",
          "type": "uint8"
        },
        {
          "internalType": "uint8",
          "name": "numToBurn",
          "type": "uint8"
        },
        {
          "internalType": "uint8",
          "name": "mintGen",
          "type": "uint8"
        },
        {
          "internalType": "uint8",
          "name": "numToMint",
          "type": "uint8"
        }
      ],
      "stateMutability": "view",
      "type": "function"
    },
    {
      "inputs": [
        {
          "internalType": "address",
          "name": "",
          "type": "address"
        },
        {
          "internalType": "address",
          "name": "",
          "type": "address"
        }
      ],
      "name": "isApprovedForAll",
      "outputs": [
        {
          "internalType": "bool",
          "name": "",
          "type": "bool"
        }
      ],
      "stateMutability": "view",
      "type": "function"
    },
    {
      "inputs": [
        {
          "internalType": "uint256",
          "name": "",
          "type": "uint256"
        }
      ],
      "name": "mintMapping",
      "outputs": [
        {
          "internalType": "uint64",
          "name": "price",
          "type": "uint64"
        },
        {
          "internalType": "uint32",
          "name": "startTime",
          "type": "uint32"
        },
        {
          "internalType": "uint32",
          "name": "endTime",
          "type": "uint32"
        },
        {
          "internalType": "uint8",
          "name": "gen",
          "type": "uint8"
        }
      ],
      "stateMutability": "view",
      "type": "function"
    },
    {
      "inputs": [],
      "name": "name",
      "outputs": [
        {
          "internalType": "string",
          "name": "",
          "type": "string"
        }
      ],
      "stateMutability": "view",
      "type": "function"
    },
    {
      "inputs": [
        {
          "internalType": "uint256",
          "name": "quantity",
          "type": "uint256"
        },
        {
          "internalType": "uint256",
          "name": "detailsIndex",
          "type": "uint256"
        }
      ],
      "name": "openMint",
      "outputs": [],
      "stateMutability": "payable",
      "type": "function"
    },
    {
      "inputs": [],
      "name": "owner",
      "outputs": [
        {
          "internalType": "address",
          "name": "",
          "type": "address"
        }
      ],
      "stateMutability": "view",
      "type": "function"
    },
    {
      "inputs": [
        {
          "internalType": "address",
          "name": "from",
          "type": "address"
        },
        {
          "internalType": "address",
          "name": "to",
          "type": "address"
        },
        {
          "internalType": "uint256[]",
          "name": "ids",
          "type": "uint256[]"
        },
        {
          "internalType": "uint256[]",
          "name": "amounts",
          "type": "uint256[]"
        },
        {
          "internalType": "bytes",
          "name": "data",
          "type": "bytes"
        }
      ],
      "name": "safeBatchTransferFrom",
      "outputs": [],
      "stateMutability": "nonpayable",
      "type": "function"
    },
    {
      "inputs": [
        {
          "internalType": "address",
          "name": "from",
          "type": "address"
        },
        {
          "internalType": "address",
          "name": "to",
          "type": "address"
        },
        {
          "internalType": "uint256",
          "name": "id",
          "type": "uint256"
        },
        {
          "internalType": "uint256",
          "name": "amount",
          "type": "uint256"
        },
        {
          "internalType": "bytes",
          "name": "data",
          "type": "bytes"
        }
      ],
      "name": "safeTransferFrom",
      "outputs": [],
      "stateMutability": "nonpayable",
      "type": "function"
    },
    {
      "inputs": [
        {
          "internalType": "address",
          "name": "operator",
          "type": "address"
        },
        {
          "internalType": "bool",
          "name": "approved",
          "type": "bool"
        }
      ],
      "name": "setApprovalForAll",
      "outputs": [],
      "stateMutability": "nonpayable",
      "type": "function"
    },
    {
      "inputs": [
        {
          "internalType": "uint256",
          "name": "index",
          "type": "uint256"
        },
        {
          "internalType": "uint64",
          "name": "price",
          "type": "uint64"
        },
        {
          "internalType": "uint8",
          "name": "burnGen",
          "type": "uint8"
        },
        {
          "internalType": "uint8",
          "name": "numToBurn",
          "type": "uint8"
        },
        {
          "internalType": "uint8",
          "name": "mintGen",
          "type": "uint8"
        },
        {
          "internalType": "uint8",
          "name": "numToMint",
          "type": "uint8"
        }
      ],
      "name": "setBurnDetails",
      "outputs": [],
      "stateMutability": "nonpayable",
      "type": "function"
    },
    {
      "inputs": [
        {
          "internalType": "uint256",
          "name": "index",
          "type": "uint256"
        },
        {
          "internalType": "uint64",
          "name": "price",
          "type": "uint64"
        },
        {
          "internalType": "uint32",
          "name": "startTime",
          "type": "uint32"
        },
        {
          "internalType": "uint32",
          "name": "endTime",
          "type": "uint32"
        },
        {
          "internalType": "uint8",
          "name": "gen",
          "type": "uint8"
        }
      ],
      "name": "setMintDetails",
      "outputs": [],
      "stateMutability": "nonpayable",
      "type": "function"
    },
    {
      "inputs": [
        {
          "internalType": "uint256",
          "name": "id",
          "type": "uint256"
        },
        {
          "internalType": "string",
          "name": "uri",
          "type": "string"
        }
      ],
      "name": "setURI",
      "outputs": [],
      "stateMutability": "nonpayable",
      "type": "function"
    },
    {
      "inputs": [
        {
          "internalType": "bytes4",
          "name": "interfaceId",
          "type": "bytes4"
        }
      ],
      "name": "supportsInterface",
      "outputs": [
        {
          "internalType": "bool",
          "name": "",
          "type": "bool"
        }
      ],
      "stateMutability": "view",
      "type": "function"
    },
    {
      "inputs": [],
      "name": "symbol",
      "outputs": [
        {
          "internalType": "string",
          "name": "",
          "type": "string"
        }
      ],
      "stateMutability": "view",
      "type": "function"
    },
    {
      "inputs": [
        {
          "internalType": "address",
          "name": "newOwner",
          "type": "address"
        }
      ],
      "name": "transferOwnership",
      "outputs": [],
      "stateMutability": "nonpayable",
      "type": "function"
    },
    {
      "inputs": [
        {
          "internalType": "uint256",
          "name": "id",
          "type": "uint256"
        }
      ],
      "name": "uri",
      "outputs": [
        {
          "internalType": "string",
          "name": "",
          "type": "string"
        }
      ],
      "stateMutability": "view",
      "type": "function"
    },
    {
      "inputs": [
        {
          "internalType": "uint256",
          "name": "",
          "type": "uint256"
        }
      ],
      "name": "uriMapping",
      "outputs": [
        {
          "internalType": "string",
          "name": "",
          "type": "string"
        }
      ],
      "stateMutability": "view",
      "type": "function"
    },
    {
      "inputs": [],
      "name": "withdraw",
      "outputs": [],
      "stateMutability": "nonpayable",
      "type": "function"
    }
  ],
  "bytecode": {
    "object": "0x60806040523480156200001157600080fd5b50604051620020f1380380620020f1833981016040819052620000349162000162565b600280546001600160a01b0319163390811790915560405181906000907f8be0079c531659141344cd1fd0a4f28419497f9722a3daafe3b4186f6b6457e0908290a35060036200008583826200025b565b5060046200009482826200025b565b50505062000327565b634e487b7160e01b600052604160045260246000fd5b600082601f830112620000c557600080fd5b81516001600160401b0380821115620000e257620000e26200009d565b604051601f8301601f19908116603f011681019082821181831017156200010d576200010d6200009d565b816040528381526020925086838588010111156200012a57600080fd5b600091505b838210156200014e57858201830151818301840152908201906200012f565b600093810190920192909252949350505050565b600080604083850312156200017657600080fd5b82516001600160401b03808211156200018e57600080fd5b6200019c86838701620000b3565b93506020850151915080821115620001b357600080fd5b50620001c285828601620000b3565b9150509250929050565b600181811c90821680620001e157607f821691505b6020821081036200020257634e487b7160e01b600052602260045260246000fd5b50919050565b601f8211156200025657600081815260208120601f850160051c81016020861015620002315750805b601f850160051c820191505b8181101562000252578281556001016200023d565b5050505b505050565b81516001600160401b038111156200027757620002776200009d565b6200028f81620002888454620001cc565b8462000208565b602080601f831160018114620002c75760008415620002ae5750858301515b600019600386901b1c1916600185901b17855562000252565b600085815260208120601f198616915b82811015620002f857888601518255948401946001909101908401620002d7565b5085821015620003175787850151600019600388901b60f8161c191681555b5050505050600190811b01905550565b611dba80620003376000396000f3fe6080604052600436106101295760003560e01c80638da5cb5b116100ab578063c9996a031161006f578063c9996a031461043a578063d98259ba1461045a578063e74b6ce81461046d578063e985e9c51461048d578063f242432a146104c8578063f2fde38b146104e857600080fd5b80638da5cb5b1461031957806395d89b4114610351578063a22cb46514610366578063a66f85cb14610386578063a9f9b27d1461041a57600080fd5b80632eb2c2d6116100f25780632eb2c2d6146101fd5780633ccfd60b1461021d5780634e1273f4146102325780637d1f7d761461025f578063862440e2146102f957600080fd5b8062fdd58e1461012e57806301ffc9a71461017657806305737aae146101a657806306fdde03146101bb5780630e89341c146101dd575b600080fd5b34801561013a57600080fd5b50610163610149366004611438565b600060208181529281526040808220909352908152205481565b6040519081526020015b60405180910390f35b34801561018257600080fd5b50610196610191366004611478565b610508565b604051901515815260200161016d565b6101b96101b436600461149c565b61055a565b005b3480156101c757600080fd5b506101d0610661565b60405161016d91906114fb565b3480156101e957600080fd5b506101d06101f836600461149c565b6106ef565b34801561020957600080fd5b506101b961021836600461159a565b610791565b34801561022957600080fd5b506101b9610a34565b34801561023e57600080fd5b5061025261024d366004611654565b610a8d565b60405161016d91906116bf565b34801561026b57600080fd5b506102bf61027a36600461149c565b6007602052600090815260409020546001600160401b0381169060ff600160401b8204811691600160481b8104821691600160501b8204811691600160581b90041685565b604080516001600160401b03909616865260ff9485166020870152928416928501929092528216606084015216608082015260a00161016d565b34801561030557600080fd5b506101b9610314366004611719565b610bc1565b34801561032557600080fd5b50600254610339906001600160a01b031681565b6040516001600160a01b03909116815260200161016d565b34801561035d57600080fd5b506101d0610c08565b34801561037257600080fd5b506101b96103813660046117d3565b610c15565b34801561039257600080fd5b506103e36103a136600461149c565b6006602052600090815260409020546001600160401b0381169063ffffffff600160401b8204811691600160601b81049091169060ff600160801b9091041684565b604080516001600160401b0395909516855263ffffffff9384166020860152919092169083015260ff16606082015260800161016d565b34801561042657600080fd5b506101d061043536600461149c565b610c81565b34801561044657600080fd5b506101b961045536600461184b565b610c9a565b6101b96104683660046118a9565b610d71565b34801561047957600080fd5b506101b96104883660046118cb565b610ef4565b34801561049957600080fd5b506101966104a8366004611938565b600160209081526000928352604080842090915290825290205460ff1681565b3480156104d457600080fd5b506101b96104e336600461196b565b610fe0565b3480156104f457600080fd5b506101b96105033660046119e2565b6111da565b60006301ffc9a760e01b6001600160e01b0319831614806105395750636cdb3d1360e11b6001600160e01b03198316145b8061055457506303a24d0760e21b6001600160e01b03198316145b92915050565b600081815260076020908152604091829020825160a08101845290546001600160401b03811680835260ff600160401b8304811694840194909452600160481b8204841694830194909452600160501b810483166060830152600160581b90049091166080820152906105d534670de0b6b3a7640000611a13565b101561061b5760405162461bcd60e51b815260206004820152601060248201526f6e6f7420656e6f7567682076616c756560801b60448201526064015b60405180910390fd5b61063433826020015160ff16836040015160ff16611250565b61065d33826080015160ff16836060015160ff16604051806020016040528060008152506112d4565b5050565b6003805461066e90611a2a565b80601f016020809104026020016040519081016040528092919081815260200182805461069a90611a2a565b80156106e75780601f106106bc576101008083540402835291602001916106e7565b820191906000526020600020905b8154815290600101906020018083116106ca57829003601f168201915b505050505081565b600081815260056020526040902080546060919061070c90611a2a565b80601f016020809104026020016040519081016040528092919081815260200182805461073890611a2a565b80156107855780601f1061075a57610100808354040283529160200191610785565b820191906000526020600020905b81548152906001019060200180831161076857829003601f168201915b50505050509050919050565b8483146107d25760405162461bcd60e51b815260206004820152600f60248201526e0988a9c8ea890be9a92a69a82a8869608b1b6044820152606401610612565b336001600160a01b038916148061080c57506001600160a01b038816600090815260016020908152604080832033845290915290205460ff165b6108495760405162461bcd60e51b815260206004820152600e60248201526d1393d517d055551213d49256915160921b6044820152606401610612565b60008060005b878110156109045788888281811061086957610869611a64565b90506020020135925086868281811061088457610884611a64565b6001600160a01b038e16600090815260208181526040808320898452825282208054939091029490940135955085939250906108c1908490611a7a565b90915550506001600160a01b038a16600090815260208181526040808320868452909152812080548492906108f7908490611a8d565b909155505060010161084f565b50886001600160a01b03168a6001600160a01b0316336001600160a01b03167f4a39dc06d4c0dbc64b70af90fd698a233a518aa5d07e595d983b8c0526c8f7fb8b8b8b8b6040516109589493929190611ad2565b60405180910390a46001600160a01b0389163b156109ff5760405163bc197c8160e01b808252906001600160a01b038b169063bc197c81906109ac9033908f908e908e908e908e908e908e90600401611b2d565b6020604051808303816000875af11580156109cb573d6000803e3d6000fd5b505050506040513d601f19601f820116820180604052508101906109ef9190611b91565b6001600160e01b03191614610a0c565b6001600160a01b03891615155b610a285760405162461bcd60e51b815260040161061290611bae565b50505050505050505050565b6002546001600160a01b03163314610a5e5760405162461bcd60e51b815260040161061290611bd8565b60405133904780156108fc02916000818181858888f19350505050158015610a8a573d6000803e3d6000fd5b50565b6060838214610ad05760405162461bcd60e51b815260206004820152600f60248201526e0988a9c8ea890be9a92a69a82a8869608b1b6044820152606401610612565b836001600160401b03811115610ae857610ae8611703565b604051908082528060200260200182016040528015610b11578160200160208202803683370190505b50905060005b84811015610bb857600080878784818110610b3457610b34611a64565b9050602002016020810190610b4991906119e2565b6001600160a01b03166001600160a01b031681526020019081526020016000206000858584818110610b7d57610b7d611a64565b90506020020135815260200190815260200160002054828281518110610ba557610ba5611a64565b6020908102919091010152600101610b17565b50949350505050565b6002546001600160a01b03163314610beb5760405162461bcd60e51b815260040161061290611bd8565b6000828152600560205260409020610c038282611c44565b505050565b6004805461066e90611a2a565b3360008181526001602090815260408083206001600160a01b03871680855290835292819020805460ff191686151590811790915590519081529192917f17307eab39ab6107e8899845ad3d59bd9653f200f220920489ca2b5937696c31910160405180910390a35050565b6005602052600090815260409020805461066e90611a2a565b6002546001600160a01b03163314610cc45760405162461bcd60e51b815260040161061290611bd8565b604080516080810182526001600160401b03958616815263ffffffff948516602080830191825294861682840190815260ff948516606084019081526000998a526006909652929097209051815497519251945196166bffffffffffffffffffffffff1990971696909617600160401b918516919091021764ffffffffff60601b1916600160601b929093169190910260ff60801b191691909117600160801b9290911691909102179055565b600081815260066020908152604091829020825160808101845290546001600160401b038116825263ffffffff600160401b8204811693830193909352600160601b81049092169281019290925260ff600160801b9091041660608201819052610e0c5760405162461bcd60e51b815260206004820152600c60248201526b1a5b9d985b1a59081b5a5b9d60a21b6044820152606401610612565b8051610e229084906001600160401b0316611a13565b610e3434670de0b6b3a7640000611a13565b1015610e755760405162461bcd60e51b815260206004820152601060248201526f6e6f7420656e6f7567682076616c756560801b6044820152606401610612565b806020015163ffffffff1642118015610e975750806040015163ffffffff1642105b610ed25760405162461bcd60e51b815260206004820152600c60248201526b696e76616c69642074696d6560a01b6044820152606401610612565b610c033384836060015160ff16604051806020016040528060008152506112d4565b6002546001600160a01b03163314610f1e5760405162461bcd60e51b815260040161061290611bd8565b6040805160a0810182526001600160401b03968716815260ff958616602080830191825295871682840190815294871660608301908152938716608083019081526000998a526007909652919097209651875491519351925194518616600160581b0260ff60581b19958716600160501b0260ff60501b19948816600160481b02949094166affff0000000000000000001995909716600160401b0268ffffffffffffffffff1990931691909716171791909116929092179190911716179055565b336001600160a01b038716148061101a57506001600160a01b038616600090815260016020908152604080832033845290915290205460ff165b6110575760405162461bcd60e51b815260206004820152600e60248201526d1393d517d055551213d49256915160921b6044820152606401610612565b6001600160a01b03861660009081526020818152604080832087845290915281208054859290611088908490611a7a565b90915550506001600160a01b038516600090815260208181526040808320878452909152812080548592906110be908490611a8d565b909155505060408051858152602081018590526001600160a01b03808816929089169133917fc3d58168c5ae7397731d063d5bbf3d657854427343f4c083240f7aacaa2d0f62910160405180910390a46001600160a01b0385163b156111a95760405163f23a6e6160e01b808252906001600160a01b0387169063f23a6e61906111569033908b908a908a908a908a90600401611d03565b6020604051808303816000875af1158015611175573d6000803e3d6000fd5b505050506040513d601f19601f820116820180604052508101906111999190611b91565b6001600160e01b031916146111b6565b6001600160a01b03851615155b6111d25760405162461bcd60e51b815260040161061290611bae565b505050505050565b6002546001600160a01b031633146112045760405162461bcd60e51b815260040161061290611bd8565b600280546001600160a01b0319166001600160a01b03831690811790915560405133907f8be0079c531659141344cd1fd0a4f28419497f9722a3daafe3b4186f6b6457e090600090a350565b6001600160a01b03831660009081526020818152604080832085845290915281208054839290611281908490611a7a565b909155505060408051838152602081018390526000916001600160a01b0386169133917fc3d58168c5ae7397731d063d5bbf3d657854427343f4c083240f7aacaa2d0f62910160405180910390a4505050565b6001600160a01b03841660009081526020818152604080832086845290915281208054849290611305908490611a8d565b909155505060408051848152602081018490526001600160a01b0386169160009133917fc3d58168c5ae7397731d063d5bbf3d657854427343f4c083240f7aacaa2d0f62910160405180910390a46001600160a01b0384163b156113ed5760405163f23a6e6160e01b808252906001600160a01b0386169063f23a6e619061139a903390600090899089908990600401611d4a565b6020604051808303816000875af11580156113b9573d6000803e3d6000fd5b505050506040513d601f19601f820116820180604052508101906113dd9190611b91565b6001600160e01b031916146113fa565b6001600160a01b03841615155b6114165760405162461bcd60e51b815260040161061290611bae565b50505050565b80356001600160a01b038116811461143357600080fd5b919050565b6000806040838503121561144b57600080fd5b6114548361141c565b946020939093013593505050565b6001600160e01b031981168114610a8a57600080fd5b60006020828403121561148a57600080fd5b813561149581611462565b9392505050565b6000602082840312156114ae57600080fd5b5035919050565b6000815180845260005b818110156114db576020818501810151868301820152016114bf565b506000602082860101526020601f19601f83011685010191505092915050565b60208152600061149560208301846114b5565b60008083601f84011261152057600080fd5b5081356001600160401b0381111561153757600080fd5b6020830191508360208260051b850101111561155257600080fd5b9250929050565b60008083601f84011261156b57600080fd5b5081356001600160401b0381111561158257600080fd5b60208301915083602082850101111561155257600080fd5b60008060008060008060008060a0898b0312156115b657600080fd5b6115bf8961141c565b97506115cd60208a0161141c565b965060408901356001600160401b03808211156115e957600080fd5b6115f58c838d0161150e565b909850965060608b013591508082111561160e57600080fd5b61161a8c838d0161150e565b909650945060808b013591508082111561163357600080fd5b506116408b828c01611559565b999c989b5096995094979396929594505050565b6000806000806040858703121561166a57600080fd5b84356001600160401b038082111561168157600080fd5b61168d8883890161150e565b909650945060208701359150808211156116a657600080fd5b506116b38782880161150e565b95989497509550505050565b6020808252825182820181905260009190848201906040850190845b818110156116f7578351835292840192918401916001016116db565b50909695505050505050565b634e487b7160e01b600052604160045260246000fd5b6000806040838503121561172c57600080fd5b8235915060208301356001600160401b038082111561174a57600080fd5b818501915085601f83011261175e57600080fd5b81358181111561177057611770611703565b604051601f8201601f19908116603f0116810190838211818310171561179857611798611703565b816040528281528860208487010111156117b157600080fd5b8260208601602083013760006020848301015280955050505050509250929050565b600080604083850312156117e657600080fd5b6117ef8361141c565b91506020830135801515811461180457600080fd5b809150509250929050565b80356001600160401b038116811461143357600080fd5b803563ffffffff8116811461143357600080fd5b803560ff8116811461143357600080fd5b600080600080600060a0868803121561186357600080fd5b853594506118736020870161180f565b935061188160408701611826565b925061188f60608701611826565b915061189d6080870161183a565b90509295509295909350565b600080604083850312156118bc57600080fd5b50508035926020909101359150565b60008060008060008060c087890312156118e457600080fd5b863595506118f46020880161180f565b94506119026040880161183a565b93506119106060880161183a565b925061191e6080880161183a565b915061192c60a0880161183a565b90509295509295509295565b6000806040838503121561194b57600080fd5b6119548361141c565b91506119626020840161141c565b90509250929050565b60008060008060008060a0878903121561198457600080fd5b61198d8761141c565b955061199b6020880161141c565b9450604087013593506060870135925060808701356001600160401b038111156119c457600080fd5b6119d089828a01611559565b979a9699509497509295939492505050565b6000602082840312156119f457600080fd5b6114958261141c565b634e487b7160e01b600052601160045260246000fd5b8082028115828204841417610554576105546119fd565b600181811c90821680611a3e57607f821691505b602082108103611a5e57634e487b7160e01b600052602260045260246000fd5b50919050565b634e487b7160e01b600052603260045260246000fd5b81810381811115610554576105546119fd565b80820180821115610554576105546119fd565b81835260006001600160fb1b03831115611ab957600080fd5b8260051b80836020870137939093016020019392505050565b604081526000611ae6604083018688611aa0565b8281036020840152611af9818587611aa0565b979650505050505050565b81835281816020850137506000828201602090810191909152601f909101601f19169091010190565b6001600160a01b0389811682528816602082015260a060408201819052600090611b5a908301888a611aa0565b8281036060840152611b6d818789611aa0565b90508281036080840152611b82818587611b04565b9b9a5050505050505050505050565b600060208284031215611ba357600080fd5b815161149581611462565b60208082526010908201526f155394d0519157d49150d2541251539560821b604082015260600190565b6020808252600c908201526b15539055551213d49256915160a21b604082015260600190565b601f821115610c0357600081815260208120601f850160051c81016020861015611c255750805b601f850160051c820191505b818110156111d257828155600101611c31565b81516001600160401b03811115611c5d57611c5d611703565b611c7181611c6b8454611a2a565b84611bfe565b602080601f831160018114611ca65760008415611c8e5750858301515b600019600386901b1c1916600185901b1785556111d2565b600085815260208120601f198616915b82811015611cd557888601518255948401946001909101908401611cb6565b5085821015611cf35787850151600019600388901b60f8161c191681555b5050505050600190811b01905550565b6001600160a01b03878116825286166020820152604081018590526060810184905260a060808201819052600090611d3e9083018486611b04565b98975050505050505050565b6001600160a01b03868116825285166020820152604081018490526060810183905260a060808201819052600090611af9908301846114b556fea264697066735822122021db50a89680cfa39a0f7561cd9abfbb306834e55fae29b14098e7b6cca1be6164736f6c63430008110033",
    "linkReferences": {}
  },
  "methodIdentifiers": {
    "balanceOf(address,uint256)": "00fdd58e",
    "balanceOfBatch(address[],uint256[])": "4e1273f4",
    "burnToMint(uint256)": "05737aae",
    "burnToMintMapping(uint256)": "7d1f7d76",
    "isApprovedForAll(address,address)": "e985e9c5",
    "mintMapping(uint256)": "a66f85cb",
    "name()": "06fdde03",
    "openMint(uint256,uint256)": "d98259ba",
    "owner()": "8da5cb5b",
    "safeBatchTransferFrom(address,address,uint256[],uint256[],bytes)": "2eb2c2d6",
    "safeTransferFrom(address,address,uint256,uint256,bytes)": "f242432a",
    "setApprovalForAll(address,bool)": "a22cb465",
    "setBurnDetails(uint256,uint64,uint8,uint8,uint8,uint8)": "e74b6ce8",
    "setMintDetails(uint256,uint64,uint32,uint32,uint8)": "c9996a03",
    "setURI(uint256,string)": "862440e2",
    "supportsInterface(bytes4)": "01ffc9a7",
    "symbol()": "95d89b41",
    "transferOwnership(address)": "f2fde38b",
    "uri(uint256)": "0e89341c",
    "uriMapping(uint256)": "a9f9b27d",
    "withdraw()": "3ccfd60b"
  },
  "id": 3
}